:1000000039C0000047C0000045C0000043C00000E8
:1000100041C000003FC000003DC000003BC00000E8
:1000200039C0000037C0000035C0000034C00000F7
:1000300031C000002FC000002DC000002BC0000008
:1000400029C0000027C0000025C0000023C0000018
:1000500021C000001FC000001DC000001BC0000028
:1000600019C0000017C0000015C0000013C0000038
:1000700011C0000011241FBECFEFD4E0DEBFCDBF02
:1000800011E0A0E0B1E001C01D92A330B107E1F79B
:10009000BED0E3C0B5CF1F920F920FB60F921124BE
:1000A0002F933F934F938F939F938091E10082FF13
:1000B00009C08091E20082FF05C08091E1008B7F42
:1000C0008093E1008091E10080FF16C08091E20002
:1000D00080FF12C08091E2008E7F8093E2008091C9
:1000E000E20080618093E2008091D800806280937A
:1000F000D80019BC109202018091E10084FF2CC04D
:100100008091E20084FF28C084E089BD86E089BD3B
:1001100009B400FEFDCF8091D8008F7D8093D80078
:100120008091E1008F7E8093E1008091E2008F7EDC
:100130008093E2008091E20081608093E2008091F0
:100140000101811106C08091E30087FD02C081E0BA
:1001500001C084E0809302018091E10083FF4DC0E3
:100160008091E20083FF49C08091E100877F809306
:10017000E10082E080930201109201018091E10090
:100180008E7F8093E1008091E2008E7F8093E20079
:100190008091E20080618093E20080E08093E9003A
:1001A000882339F04091EC009091ED003091F000FF
:1001B00003C030E092E240E091FD06C08F5F8530E1
:1001C00069F71092E90019C02091EB002E7F20936F
:1001D000EB002091ED002D7F2093ED002091EB00AE
:1001E00021602093EB004093EC009093ED0030935E
:1001F000F0009091EE0097FDE1CF9F918F914F918C
:100200003F912F910F900FBE0F901F901895CF9395
:10021000DF93C0E0D0E06FEFCE010DD02196C11585
:1002200084E0D807C1F7E0E0F8E1099580E090E0CC
:10023000DF91CF910895262FF999FECF92BD81BD10
:10024000F89A019700B4021639F01FBA20BD0FB614
:0E025000F894FA9AF99A0FBE0895F894FFCF29
:00000001FF
